{
  "_format": "hh-sol-artifact-1",
  "contractName": "ResumeMatch",
  "sourceName": "contracts/ResumeMatch.sol",
  "abi": [
    {
      "inputs": [],
      "name": "ZamaProtocolUnsupported",
      "type": "error"
    },
    {
      "anonymous": false,
      "inputs": [
        {
          "indexed": true,
          "internalType": "address",
          "name": "employer",
          "type": "address"
        }
      ],
      "name": "JobRequirementSubmitted",
      "type": "event"
    },
    {
      "anonymous": false,
      "inputs": [
        {
          "indexed": true,
          "internalType": "address",
          "name": "profileOwner",
          "type": "address"
        },
        {
          "indexed": true,
          "internalType": "address",
          "name": "employer",
          "type": "address"
        }
      ],
      "name": "MatchComputed",
      "type": "event"
    },
    {
      "anonymous": false,
      "inputs": [
        {
          "indexed": true,
          "internalType": "address",
          "name": "owner",
          "type": "address"
        }
      ],
      "name": "ProfileSubmitted",
      "type": "event"
    },
    {
      "inputs": [],
      "name": "MAX_EXPERIENCE",
      "outputs": [
        {
          "internalType": "uint32",
          "name": "",
          "type": "uint32"
        }
      ],
      "stateMutability": "view",
      "type": "function"
    },
    {
      "inputs": [],
      "name": "MAX_SKILL_SCORE",
      "outputs": [
        {
          "internalType": "uint32",
          "name": "",
          "type": "uint32"
        }
      ],
      "stateMutability": "view",
      "type": "function"
    },
    {
      "inputs": [],
      "name": "SKILL_VECTOR_SIZE",
      "outputs": [
        {
          "internalType": "uint32",
          "name": "",
          "type": "uint32"
        }
      ],
      "stateMutability": "view",
      "type": "function"
    },
    {
      "inputs": [
        {
          "internalType": "address",
          "name": "profileOwner",
          "type": "address"
        },
        {
          "internalType": "address",
          "name": "employer",
          "type": "address"
        }
      ],
      "name": "computeMatchScore",
      "outputs": [
        {
          "internalType": "euint32",
          "name": "",
          "type": "bytes32"
        }
      ],
      "stateMutability": "nonpayable",
      "type": "function"
    },
    {
      "inputs": [],
      "name": "confidentialProtocolId",
      "outputs": [
        {
          "internalType": "uint256",
          "name": "",
          "type": "uint256"
        }
      ],
      "stateMutability": "view",
      "type": "function"
    },
    {
      "inputs": [
        {
          "internalType": "address",
          "name": "profileOwner",
          "type": "address"
        },
        {
          "internalType": "address",
          "name": "employer",
          "type": "address"
        }
      ],
      "name": "getMatchScore",
      "outputs": [
        {
          "internalType": "euint32",
          "name": "",
          "type": "bytes32"
        }
      ],
      "stateMutability": "view",
      "type": "function"
    },
    {
      "inputs": [
        {
          "internalType": "address",
          "name": "employer",
          "type": "address"
        }
      ],
      "name": "hasJobRequirement",
      "outputs": [
        {
          "internalType": "bool",
          "name": "",
          "type": "bool"
        }
      ],
      "stateMutability": "view",
      "type": "function"
    },
    {
      "inputs": [
        {
          "internalType": "address",
          "name": "profileOwner",
          "type": "address"
        },
        {
          "internalType": "address",
          "name": "employer",
          "type": "address"
        }
      ],
      "name": "hasMatchResult",
      "outputs": [
        {
          "internalType": "bool",
          "name": "",
          "type": "bool"
        }
      ],
      "stateMutability": "view",
      "type": "function"
    },
    {
      "inputs": [
        {
          "internalType": "address",
          "name": "owner",
          "type": "address"
        }
      ],
      "name": "hasProfile",
      "outputs": [
        {
          "internalType": "bool",
          "name": "",
          "type": "bool"
        }
      ],
      "stateMutability": "view",
      "type": "function"
    },
    {
      "inputs": [
        {
          "internalType": "address",
          "name": "",
          "type": "address"
        }
      ],
      "name": "jobRequirements",
      "outputs": [
        {
          "internalType": "euint32",
          "name": "minExperience",
          "type": "bytes32"
        },
        {
          "internalType": "euint32",
          "name": "softSkillWeight",
          "type": "bytes32"
        },
        {
          "internalType": "address",
          "name": "employer",
          "type": "address"
        },
        {
          "internalType": "bool",
          "name": "exists",
          "type": "bool"
        }
      ],
      "stateMutability": "view",
      "type": "function"
    },
    {
      "inputs": [
        {
          "internalType": "address",
          "name": "",
          "type": "address"
        },
        {
          "internalType": "address",
          "name": "",
          "type": "address"
        }
      ],
      "name": "matchResults",
      "outputs": [
        {
          "internalType": "euint32",
          "name": "score",
          "type": "bytes32"
        },
        {
          "internalType": "address",
          "name": "profileOwner",
          "type": "address"
        },
        {
          "internalType": "address",
          "name": "employer",
          "type": "address"
        },
        {
          "internalType": "bool",
          "name": "exists",
          "type": "bool"
        }
      ],
      "stateMutability": "view",
      "type": "function"
    },
    {
      "inputs": [
        {
          "internalType": "address",
          "name": "",
          "type": "address"
        }
      ],
      "name": "profiles",
      "outputs": [
        {
          "internalType": "euint32",
          "name": "experience",
          "type": "bytes32"
        },
        {
          "internalType": "euint32",
          "name": "softSkills",
          "type": "bytes32"
        },
        {
          "internalType": "address",
          "name": "owner",
          "type": "address"
        },
        {
          "internalType": "bool",
          "name": "exists",
          "type": "bool"
        }
      ],
      "stateMutability": "view",
      "type": "function"
    },
    {
      "inputs": [
        {
          "internalType": "externalEuint32[10]",
          "name": "encryptedSkills",
          "type": "bytes32[10]"
        },
        {
          "internalType": "externalEuint32",
          "name": "encryptedExperience",
          "type": "bytes32"
        },
        {
          "internalType": "externalEuint32",
          "name": "encryptedSoftSkills",
          "type": "bytes32"
        },
        {
          "internalType": "bytes",
          "name": "inputProof",
          "type": "bytes"
        }
      ],
      "name": "submitEncryptedProfile",
      "outputs": [],
      "stateMutability": "nonpayable",
      "type": "function"
    },
    {
      "inputs": [
        {
          "internalType": "externalEuint32[10]",
          "name": "encryptedSkillWeights",
          "type": "bytes32[10]"
        },
        {
          "internalType": "externalEuint32",
          "name": "encryptedMinExperience",
          "type": "bytes32"
        },
        {
          "internalType": "externalEuint32",
          "name": "encryptedSoftSkillWeight",
          "type": "bytes32"
        },
        {
          "internalType": "bytes",
          "name": "inputProof",
          "type": "bytes"
        }
      ],
      "name": "submitJobRequirement",
      "outputs": [],
      "stateMutability": "nonpayable",
      "type": "function"
    }
  ],
  "bytecode": "0x608060405234801561000f575f5ffd5b506100c461001b6100c9565b80517f9e7b61f58c47dc699ac88507c4f5bb9f121c03808c5676a8078fe583e464970080546001600160a01b03199081166001600160a01b039384161790915560208301517f9e7b61f58c47dc699ac88507c4f5bb9f121c03808c5676a8078fe583e46497018054831691841691909117905560408301517f9e7b61f58c47dc699ac88507c4f5bb9f121c03808c5676a8078fe583e46497028054909216921691909117905550565b610238565b604080516060810182525f808252602082018190529181019190915246600103610122575060408051606080820183525f8083526020808401829052928401819052835191820184528082529181018290529182015290565b4662aa36a7036101a1575060408051606080820183525f8083526020808401829052928401528251908101835273f0ffdc93b7e186bc2f8cb3daa75d86d1930a433d81527392c920834ec8941d2c77d188936e1f7a6f49c1279181019190915273be0e383937d564d7ff0bc3b46c51f0bf8d5c311a9181019190915290565b46617a690361021f575060408051606080820183525f8083526020808401829052928401528251908101835273f0ffdc93b7e186bc2f8cb3daa75d86d1930a433d81527392c920834ec8941d2c77d188936e1f7a6f49c1279181019190915273be0e383937d564d7ff0bc3b46c51f0bf8d5c311a9181019190915290565b6040516373cac13b60e01b815260040160405180910390fd5b61160d806102455f395ff3fe608060405234801561000f575f5ffd5b50600436106100e5575f3560e01c8063a66172bd11610088578063c0b3688811610063578063c0b36888146102d9578063cda6db40146102ec578063ef97df1c14610332578063ff9f276c1461033a575f5ffd5b8063a66172bd1461021a578063a787c80b1461022d578063bbe1562714610262575f5ffd5b80637709e7cd116100c35780637709e7cd146101cc5780638927b030146101ed5780639a5327e7146101f5578063a17d73e414610212575f5ffd5b806336c2b947146100e95780635087a7381461017257806368c2f3fd146101b7575b5f5ffd5b6101376100f7366004611450565b600260208181525f938452604080852090915291835291208054600182015491909201546001600160a01b0391821691811690600160a01b900460ff1684565b60405161016994939291909384526001600160a01b039283166020850152911660408301521515606082015260800190565b60405180910390f35b6101a7610180366004611481565b6001600160a01b03165f908152600160205260409020600c0154600160a01b900460ff1690565b6040519015158152602001610169565b6101ca6101c536600461149a565b610380565b005b6101df6101da366004611450565b610609565b604051908152602001610169565b6101df6106b9565b6101fd603281565b60405163ffffffff9091168152602001610169565b6101fd606481565b6101ca61022836600461149a565b6106c7565b6101a761023b366004611481565b6001600160a01b03165f908152602081905260409020600c0154600160a01b900460ff1690565b6102a8610270366004611481565b5f602081905290815260409020600a810154600b820154600c909201549091906001600160a01b03811690600160a01b900460ff1684565b604051610169949392919093845260208401929092526001600160a01b031660408301521515606082015260800190565b6101df6102e7366004611450565b6108fc565b6102a86102fa366004611481565b60016020525f90815260409020600a810154600b820154600c909201549091906001600160a01b03811690600160a01b900460ff1684565b6101fd600a81565b6101a7610348366004611450565b6001600160a01b039182165f90815260026020818152604080842094909516835292909252919091200154600160a01b900460ff1690565b6103886113cd565b5f5b600a63ffffffff82161015610419576103f4878263ffffffff16600a81106103b4576103b4611530565b602002013585858080601f0160208091040260200160405190810160405280939291908181526020018383808284375f92019190915250610d0d92505050565b828263ffffffff16600a811061040c5761040c611530565b602002015260010161038a565b505f61045a8685858080601f0160208091040260200160405190810160405280939291908181526020018383808284375f92019190915250610d0d92505050565b90505f61049c8686868080601f0160208091040260200160405190810160405280939291908181526020018383808284375f92019190915250610d0d92505050565b6040805160a08101825285815260208082018690528183018490523360608301819052600160808401525f9081529081905291909120815192935090916104e6908290600a6113ec565b506020820151600a8201556040820151600b8201556060820151600c90910180546080909301511515600160a01b0274ffffffffffffffffffffffffffffffffffffffffff199093166001600160a01b03909216919091179190911790555f5b600a63ffffffff821610156105aa5761057a848263ffffffff16600a811061057057610570611530565b6020020151610d21565b506105a1848263ffffffff16600a811061059657610596611530565b602002015133610d30565b50600101610546565b506105b482610d21565b506105bf8233610d30565b506105c981610d21565b506105d48133610d30565b5060405133907ff10d3bc2e50ffdaa9ac346b659e7e62ea8b70d0d2eb6bd87654abd8643dff592905f90a25050505050505050565b6001600160a01b038281165f908152600260208181526040808420948616845293905291812090910154600160a01b900460ff1661068e5760405162461bcd60e51b815260206004820152601b60248201527f4d6174636820726573756c7420646f6573206e6f74206578697374000000000060448201526064015b60405180910390fd5b506001600160a01b039182165f90815260026020908152604080832093909416825291909152205490565b5f6106c2610d42565b905090565b6106cf6113cd565b5f5b600a63ffffffff82161015610720576106fb878263ffffffff16600a81106103b4576103b4611530565b828263ffffffff16600a811061071357610713611530565b60200201526001016106d1565b505f6107618685858080601f0160208091040260200160405190810160405280939291908181526020018383808284375f92019190915250610d0d92505050565b90505f6107a38686868080601f0160208091040260200160405190810160405280939291908181526020018383808284375f92019190915250610d0d92505050565b6040805160a081018252858152602080820186905281830184905233606083018190526001608084018190525f91825290915291909120815192935090916107ee908290600a6113ec565b506020820151600a8201556040820151600b8201556060820151600c90910180546080909301511515600160a01b0274ffffffffffffffffffffffffffffffffffffffffff199093166001600160a01b03909216919091179190911790555f5b600a63ffffffff8216101561089d57610878848263ffffffff16600a811061057057610570611530565b50610894848263ffffffff16600a811061059657610596611530565b5060010161084e565b506108a782610d21565b506108b28233610d30565b506108bc81610d21565b506108c78133610d30565b5060405133907ff0a2ac9eb5ef1972d8a8e0cebe2614e7735652fa861acba216d7cde2cad21cbb905f90a25050505050505050565b6001600160a01b0382165f908152602081905260408120600c0154600160a01b900460ff1661096d5760405162461bcd60e51b815260206004820152601660248201527f50726f66696c6520646f6573206e6f74206578697374000000000000000000006044820152606401610685565b6001600160a01b0382165f908152600160205260409020600c0154600160a01b900460ff166109de5760405162461bcd60e51b815260206004820152601e60248201527f4a6f6220726571756972656d656e7420646f6573206e6f7420657869737400006044820152606401610685565b6001600160a01b0383165f9081526020819052604080822081516101e081019092528160a0810182600a8282826020028201915b815481526020019060010190808311610a12575050509183525050600a82810154602080840191909152600b840154604080850191909152600c909401546001600160a01b038082166060860152600160a01b90910460ff1615156080909401939093529187165f908152600190925282822083516101e0810194859052949550919392839160a083019184919082845b815481526020019060010190808311610aa3575050509183525050600a8201546020820152600b8201546040820152600c909101546001600160a01b0381166060830152600160a01b900460ff16151560809091015290505f610b0581610d76565b90505f5b600a63ffffffff82161015610b76575f610b5f855f01518363ffffffff16600a8110610b3757610b37611530565b6020020151855163ffffffff8516600a8110610b5557610b55611530565b6020020151610d8e565b9050610b6b8382610dbc565b925050600101610b09565b505f610b8a84602001518460200151610dea565b90505f610ba982610b9b6032610d76565b610ba45f610d76565b610e18565b9050610bb58382610dbc565b92505f610bca86604001518660400151610d8e565b9050610bd68482610dbc565b9350610be3846064610e5f565b604080516080810182528281526001600160a01b038c811660208084018281528e84168587018181526001606088018181525f96875260028087528a8820948852939095529790942095518655905195850180547fffffffffffffffffffffffff00000000000000000000000000000000000000001696851696909617909555905192909301805493519290911674ffffffffffffffffffffffffffffffffffffffffff1990931692909217600160a01b911515919091021790559350610ca984610d21565b50610cb4848a610d30565b50610cbf8489610d30565b50876001600160a01b0316896001600160a01b03167f4899f7726d99cd915a33abb94cb22f6d1c7ff9e3663e06f533458b5b83c3b6cd60405160405180910390a35091979650505050505050565b5f610d1a83836004610e81565b9392505050565b5f610d2c8230610f8e565b5090565b5f610d3b8383610f8e565b5090919050565b5f46600103610d515750600190565b4662aa36a703610d62575061271190565b46617a6903610d7157505f1990565b505f90565b5f610d888263ffffffff166004611004565b92915050565b5f82610da057610d9d5f610d76565b92505b81610db157610dae5f610d76565b91505b610d1a83835f6110a6565b5f82610dce57610dcb5f610d76565b92505b81610ddf57610ddc5f610d76565b91505b610d1a83835f611176565b5f82610dfc57610df95f610d76565b92505b81610e0d57610e0a5f610d76565b91505b610d1a83835f611200565b5f83610e2a57610e275f61128a565b93505b82610e3b57610e385f610d76565b92505b81610e4c57610e495f610d76565b91505b610e578484846112a5565b949350505050565b5f82610e7157610e6e5f610d76565b92505b610d1a8363ffffffff8416611359565b7f9e7b61f58c47dc699ac88507c4f5bb9f121c03808c5676a8078fe583e46497015460405163045fc19560e11b81525f915f5160206115e15f395f51905f52916001600160a01b03909116906308bf832a90610ee7908890339089908990600401611564565b6020604051808303815f875af1158015610f03573d5f5f3e3d5ffd5b505050506040513d601f19601f82011682018060405250810190610f2791906115b5565b8154604051630f8e573b60e21b8152600481018390523360248201529193506001600160a01b031690633e395cec906044015f604051808303815f87803b158015610f70575f5ffd5b505af1158015610f82573d5f5f3e3d5ffd5b50505050509392505050565b5f5f5160206115e15f395f51905f528054604051635ca4b5b160e11b8152600481018690526001600160a01b03858116602483015292935091169063b9496b62906044015f604051808303815f87803b158015610fe9575f5ffd5b505af1158015610ffb573d5f5f3e3d5ffd5b50505050505050565b7f9e7b61f58c47dc699ac88507c4f5bb9f121c03808c5676a8078fe583e464970154604051639cd07acb60e01b81525f915f5160206115e15f395f51905f52916001600160a01b0390911690639cd07acb9061106690879087906004016115cc565b6020604051808303815f875af1158015611082573d5f5f3e3d5ffd5b505050506040513d601f19601f82011682018060405250810190610e5791906115b5565b5f5f82156110b95750600160f81b6110bc565b505f5b7f9e7b61f58c47dc699ac88507c4f5bb9f121c03808c5676a8078fe583e464970154604051630afe14ad60e31b815260048101879052602481018690526001600160f81b0319831660448201525f5160206115e15f395f51905f52916001600160a01b0316906357f0a568906064015b6020604051808303815f875af1158015611148573d5f5f3e3d5ffd5b505050506040513d601f19601f8201168201806040525081019061116c91906115b5565b9695505050505050565b5f5f82156111895750600160f81b61118c565b505f5b7f9e7b61f58c47dc699ac88507c4f5bb9f121c03808c5676a8078fe583e46497015460405163022f65e760e31b815260048101879052602481018690526001600160f81b0319831660448201525f5160206115e15f395f51905f52916001600160a01b03169063117b2f389060640161112c565b5f5f82156112135750600160f81b611216565b505f5b7f9e7b61f58c47dc699ac88507c4f5bb9f121c03808c5676a8078fe583e464970154604051631391547f60e01b815260048101879052602481018690526001600160f81b0319831660448201525f5160206115e15f395f51905f52916001600160a01b031690631391547f9060640161112c565b5f610d8882611299575f61129c565b60015b60ff165f611004565b7f9e7b61f58c47dc699ac88507c4f5bb9f121c03808c5676a8078fe583e464970154604051637702dcff60e01b81526004810185905260248101849052604481018390525f915f5160206115e15f395f51905f52916001600160a01b0390911690637702dcff906064015b6020604051808303815f875af115801561132c573d5f5f3e3d5ffd5b505050506040513d601f19601f8201168201806040525081019061135091906115b5565b95945050505050565b7f9e7b61f58c47dc699ac88507c4f5bb9f121c03808c5676a8078fe583e464970154604051635a53accb60e01b81526004810184905260248101839052600160f81b604482018190525f9290915f5160206115e15f395f51905f52916001600160a01b031690635a53accb90606401611310565b604051806101400160405280600a906020820280368337509192915050565b82600a810192821561141a579160200282015b8281111561141a5782518255916020019190600101906113ff565b50610d2c9291505b80821115610d2c575f8155600101611422565b80356001600160a01b038116811461144b575f5ffd5b919050565b5f5f60408385031215611461575f5ffd5b61146a83611435565b915061147860208401611435565b90509250929050565b5f60208284031215611491575f5ffd5b610d1a82611435565b5f5f5f5f5f6101a086880312156114af575f5ffd5b6101408601878111156114c0575f5ffd5b869550359350610160850135925061018085013567ffffffffffffffff8111156114e8575f5ffd5b8601601f810188136114f8575f5ffd5b803567ffffffffffffffff81111561150e575f5ffd5b88602082840101111561151f575f5ffd5b959894975092955050506020019190565b634e487b7160e01b5f52603260045260245ffd5b6054811061156057634e487b7160e01b5f52602160045260245ffd5b9052565b8481526001600160a01b0384166020820152608060408201525f8351806080840152806020860160a085015e5f60a0828501015260a0601f19601f8301168401019150506113506060830184611544565b5f602082840312156115c5575f5ffd5b5051919050565b82815260408101610d1a602083018461154456fe9e7b61f58c47dc699ac88507c4f5bb9f121c03808c5676a8078fe583e4649700a164736f6c634300081b000a",
  "linkReferences": {},
  "deployedLinkReferences": {}
}